:100000000C94C2030C94721F0C9409040C94090400
:100010000C9409040C9409040C9409040C9409042C
:100020000C9409040C9409040C9402270C94D42712
:100030000C9432220C9409040C9409040C940904C5
:100040000C9409040C9409040C9409040C940904FC
:100050000C9409040C94A7220C9409040C94090430
:100060000C9409040C9409040C9409040C940904DC
:100070000C9409040C9409040C9409040C940904CC
:100080000C9409040C9409040C9409040C940904BC
:100090000C9409040C9409040C9409040C940904AC
:1000A0000C9409040C9409040C9409049E079E07FF
:1000B000D007D00717083508560956094008D50853
:1000C000E608E6084609560956094F09F609F609F1
:1000D000080A080AFF09080A080A080AF609F609C0
:1000E000040A080A080A040A4128682860296828BE
:1000F0006029B428D72860292E293D290101E20072
:1001000001012B000102E201012B000000000000B0
:10011000000000000000000000E400000005000AEC
:100120000017000000E3000000190009421500005C
:10013000000551015106000700080000000451E2CB
:10014000001B0016001A000000E00000001D620401
:10015000001400000000000000000000000000008B
:1001600000E400000011000B001C0000002B000048
:100170000010000D00180000002C00015136000E88
:10018000000C0000002846E20037000F00120000BB
:1001900000E000000038723300130000000000008F
:1001A0000000000000000000000100000020022408
:1001B000022202000001000000300027023002008D
:1001C0000001000100210225022D020000010001B2
:1001D000002F0026022F02000001000000E1003481
:1001E000020100000000000000000000000000000C
:1001F0000001000000230231021F02000001000084
:1002000000350236021E0200000100010035002DFB
:10021000002E00000001000100010037025700001D
:100220000001000000310034000100000000000067
:10023000000000000000000000010000000100AA12
:1002400000A9000000010000000100010001000001
:100250000001000100010001000100000001000197
:1002600000010001000100000001000000005C012D
:1002700000005C0000000000000000000000000022
:1002800000010000002700370036000000010000D8
:10029000001E00210024000000010001001F0022B8
:1002A00000250000000100010020002300260000BE
:1002B000000100000001000100010000000000003A
:1002C000000000000000000000010000000100012B
:1002D0000001000000010000000100010001000019
:1002E0000001000100010001000100000001000107
:1002F000000100010001000000010000000754019E
:1003000000010000000000000000000000000000EC
:10031000000100000043004400450000000100000F
:10032000003A003D0040000000010001003B003E9B
:100330000041000000010001003C003F00420000BD
:1003400000010000000100010001000000000000A9
:100350000000000000000000000100000005020A8B
:100360000217020000010000001902090215020034
:10037000000100010006020702080200000100015E
:10038000001B0216021A020000010000001D0204F8
:100390000214020000000000000000000000000045
:1003A000002D02000011020B021C0200004C000094
:1003B0000010020D02180200000100010036020EBA
:1003C000020C0200002A00010037020F0212020094
:1003D0000001000000380233021302000000000098
:1003E000000000000000000000010000004A0001C1
:1003F00000010000000100000019010100010000DF
:10040000000100010006014E004D00000001000146
:100410000001000100635D00000100000001000117
:1004200000010000000000000000000000000000CB
:1004300000635D0000490250001C0D00004C0000EC
:1004400000100D51004B0000002900010001005276
:10045000000C0D00002B00010001004F00120D00E8
:100460000001000000010001000100000000000088
:100470000000000000000000000100000001000179
:100480000001000000010000000100035401000011
:100490000001000100010001004D0000004C0001BE
:1004A00000010001000100000001000000E1000166
:1004B000004C0500000000000000000000000000EB
:1004C0000001000000010001000100000001000027
:1004D0000001000100010000000100010001000115
:1004E0000001000000010001000100010001000006
:1004F00000010000000100010046000000000000B3
:1005000000000000000000000001000000010001E8
:1005100000010000000100000001000100010000D6
:1005200000010001000100010001000000010001C4
:1005300000010001000100000001000000010001B5
:1005400000010000000000000000000000000000AA
:1005500000010000004302440245020000010000C7
:10056000003A023D0240020000010001003B023E51
:100570000241020000010001003C023F0242020071
:100580000001000000010001000100000000000067
:100590000000002A2B2800000000000000000000DE
:1005A00000000000000029000000002C1E34202163
:1005B0002224342627252E362D3738271E1F2021AA
:1005C00022232425263333362E37381F0405060709
:1005D00008090A0B0C0D0E0F101112131415161723
:1005E00018191A1B1C1D2F3130232D350405060741
:1005F00008090A0B0C0D0E0F101112131415161703
:1006000018191A1B1C1D2F3130354C00000000003A
:1006100000000000000000000000000000000000DA
:100620000000000000000000000000000000007E4C
:100630000F00D4FFFFFFC7000000781C03440061D7
:10064000006300740079006C0020005400720061A7
:100650000063006500720000001C03440061006339
:1006600000740079006C0020005400720061006387
:10067000006500720000000403090409023B000247
:100680000100A0FA09040000010301010009211181
:100690000100012240000705810308000A09040146
:1006A000000103000000092111010001227B000765
:1006B00005820320000A1201000200000008EDFE7E
:1006C000071301000102000105010902A1018502D1
:1006D0000901A1000509190129081500250195083E
:1006E000750181020501093009311581257F9502C7
:1006F0007508810609381581257F950175088106E1
:10070000050C0A38021581257F950175088106C000
:10071000C005010980A101850319012AB70015014F
:1007200026B700950175108100C0050C0901A101D3
:10073000850419012AA002150126A0029501751051
:100740008100C005010906A101050719E029E71587
:100750000025019508750181029501750881010543
:1007600007190029FF150026FF009506750881006E
:100770000508190129059505750191029501750373
:100780009101C00011241FBECFEFDAE0DEBFCDBF64
:1007900004B603FE27C08091BE029091BF02A091D3
:1007A000C002B091C1028730904BA740B04BD1F44A
:1007B0001092BE021092BF021092C0021092C102AB
:1007C00014BE84B7877F84BF0FB6F894A895809134
:1007D0006000886180936000109260000FBEE0E0CE
:1007E000F8E3099511E0A0E0B1E0ECE5F4E502C022
:1007F00005900D92A83AB107D9F722E0A8EAB1E036
:1008000001C01D92AE3BB207E1F70E9485180C941F
:100810002C2A0C940000853021E59207B1F0833634
:100820009D4509F5FB0182818823E9F08091AA01A9
:10083000811106C081E08093AA0184E091E002C0AA
:1008400080E091E00E94C2050EC0FB01828181110F
:100850000AC08091AA01882331F08CEF90E00E94B9
:10086000C2051092AA0181E0089581E008950C94D8
:100870000B0408950C9439041F93CF93DF9300D099
:1008800000D01F92CDB7DEB749835A836B83309176
:10089000AB0189819A81311114C0662359F022235A
:1008A00049F00E949C0B182F682F89819A810E9421
:1008B000430B03C00E946F0B182F69817A81812F2F
:1008C00004C00E949C0B69817A810F900F900F9059
:1008D0000F900F90DF91CF911F910C945112FC015A
:1008E000262F408151816281738184810C943C0464
:1008F00081E00895CF93DF93EC0160E00E946F04E4
:10090000BE01DF91CF910C943A040E9467140E94BB
:10091000CC050C94A1140C949D1408950E94E40934
:100920000E948D042FEF84E39CE021508040904092
:10093000E1F700C000000C94CD220F931F93CF93DA
:10094000DF938C0161E00E946F04EC01B8010E940A
:1009500037048823F1F1B801CE010E94231D8823BA
:10096000C1F1B801CE010E94751D882391F1B80133
:10097000CE010E94A01E882361F1F80182818823A4
:1009800009F1CB358DE5D807C1F050F4C115FCE570
:10099000DF0781F0CF3DDC45A9F40E94671119C043
:1009A000CC35EDE5DE0761F0CD35DD4559F40E942B
:1009B000F10F08C00E948E040CC00E94FA0F02C002
:1009C0000E94FD0FC801DF91CF911F910F910C94F0
:1009D000350480E0DF91CF911F910F910895DF9250
:1009E000EF92FF920F931F93CF93DF93E82FF0E0E6
:1009F000E557FA4FD490282F26952695269530E076
:100A0000F901E55DF94F0491877010E0082E02C0EE
:100A1000159507950A94E2F701701127F901E55E33
:100A2000F94FE490F12C082E02C0F594E7940A9453
:100A3000E2F791E0E922FF24F901E55FF94FC49163
:100A4000D0E002C0D595C7958A95E2F7C170DD2741
:100A50000115110519F081EE0E942606E114F1043A
:100A600019F086EE0E9426068D2D0E945407EF286D
:100A700019F086EE0E94D506012B19F081EE0E9436
:100A8000D506CD2B51F08CE2DF91CF911F910F91C4
:100A9000FF90EF90DF900C945407DF91CF911F915E
:100AA0000F91FF90EF90DF900895EF92FF920F93D8
:100AB0001F93CF93DF938C01F62E8AE0E82EF80186
:100AC0008491882309F457C0813009F042C0E801BD
:100AD0002196FE018491813031F42196FE018491AA
:100AE0000E94540739C0823039F4E8012296FE0191
:100AF00084910E94260630C0833039F4E8012296A2
:100B0000FE0184910E94D50627C0843029F5E801B2
:100B10002296FE01249180E090E030E020533109DC
:100B20002A30310560F4E89EA001E99E500D1124A1
:100B3000C901840F951F2196FE012491EECF0097E5
:100B400059F0EFE9FFE03197F1F700C0000001979D
:100B5000F6CF0E94EF04E8018E010F5F1F4F8F2D2B
:100B6000882309F4ACCFEFE9FFE03197F1F700C03B
:100B700000008150F5CFDF91CF911F910F91FF9031
:100B8000EF90089560E00C94550508950C94C50508
:100B900081E008950C94C8050895CF93C82F0E9452
:100BA000C6058C2F0E94CA05CF910895CF93DF937D
:100BB000CDB7DEB72B970FB6F894DEBF0FBECDBF13
:100BC0004F83588769877A878B8761110E9420102D
:100BD0009E012F5F3F4F86E0F90111928A95E9F758
:100BE00085E0FE013796D90101900D928A95E1F7D3
:100BF00089819A814C815D81452B31F09F3F31F491
:100C000091E08F3F19F403C091E001C090E090FFA4
:100C100009C049815A816B817C818D819E810E94AE
:100C2000200F05C0C9010E9478048111F2CF2B96D4
:100C30000FB6F894DEBF0FBECDBFDF91CF91089500
:100C4000FC01808191810E94DE0B0895CF9388235F
:100C500009F4A9C0C82F8238C1F40E94F62081FD92
:100C6000A2C069E380910001909101010E9490214E
:100C70000E9452102FEF81EE94E02150804090406E
:100C8000E1F700C0000069E319C0833801F50E9454
:100C9000F62080FD88C063E58091000190910101FC
:100CA0000E9490210E9452102FEF81EE94E021507B
:100CB00080409040E1F700C0000063E580910001B2
:100CC000909101010E949221CF910C94521084388E
:100CD000C1F40E94F62082FD66C067E480910001A5
:100CE000909101010E9490210E9452102FEF81EEFD
:100CF00094E0215080409040E1F700C0000067E49C
:100D0000DDCF8CEF8C0F813AF8F48C2F0E94BC1948
:100D1000811149C06C2F80910001909101010E94C6
:100D20005A21882349F06C2F809100019091010194
:100D30000E9492210E9452106C2F8091000190918C
:100D400001010E949021C0CF80E28C0F883048F4CE
:100D5000C77081E001C0880FCA95EAF70E940310AE
:100D6000B3CFEBE5EC0FE33040F4F0E0E05AFE4F98
:100D7000808190E0CF910C942221E8E5EC0FE731DF
:100D800050F4F0E0EE0FFF1FEE5CFE4F808191818A
:100D9000CF910C943821CD3E30F08C2F0E94871AD1
:100DA000CF910C94591BCF910895882309F464C006
:100DB000823879F40E94F62081FF5EC069E3809159
:100DC0000001909101010E9490210E94521069E35C
:100DD00010C08338B1F40E94F62080FF4DC063E557
:100DE00080910001909101010E9490210E94521077
:100DF00063E580910001909101010E9492210C9481
:100E00005210843879F40E94F62082FF35C067E4DE
:100E100080910001909101010E9490210E94521046
:100E200067E4E7CF9CEF980F913A10F4682FE1CF79
:100E300090E2980F983050F4877091E001C0990FBC
:100E40008A95EAF7892F0E940910D9CF9BE5980F60
:100E5000933020F480E090E00C94222198E5980FE4
:100E6000973120F480E090E00C9438218D3E20F002
:100E70000E94E21A0C94591B08951F93CF93DF939D
:100E8000182FEB010E942606209741F08FE99FE082
:100E90000197F1F700C000002197F6CF812FDF9175
:100EA000CF911F910C94D506893319F060E070E062
:100EB00002C060E570E00C943D07882321F00E9499
:100EC00003100C9452100895882321F00E940910F9
:100ED0000C9452100895CF92DF92EF92FF920F93ED
:100EE0001F93CF93DF937C01062FC72FFC01D28184
:100EF000158112951F700E94D80F882399F0DD2369
:100F000089F08C2F807F803421F080E2800F883040
:100F100048F082E00E94A2100E94D80F91E0D82EE3
:100F2000D92601C0D12CCC2EC2948FE0C8228C2DA2
:100F300090E0FC01EA5AFF4F0C94BA298C2F807F75
:100F4000CF70882311F0C295C07FDD2399F0CC23A8
:100F500009F487C180E2800F883010F0011104C0CD
:100F60008C2F0E94031003C08C2F0E9413100E942C
:100F7000521077C1802F0E94D506CC2309F496C168
:100F800080E2800F883010F0011104C08C2F0E9485
:100F9000091003C08C2F0E9419100E94521086C1A4
:100FA0008C2F807FCF70803211F0C295C07F0023DC
:100FB00019F00130C9F025C0DD2371F0112341F093
:100FC000113031F40E9433108C2B0E943B106EC103
:100FD0000E9433108C2B0EC0112319F0113009F42C
:100FE00065C10E9448101FC0DD2339F0163008F09B
:100FF0005DC18C2F0E945D0759C1153008F056C1A4
:1010000012C0DD2319F01123A1F32BC1112359F0D4
:10101000093309F037C1FFEF27EE83E0F15020409C
:101020008040E1F72DC18C2F0E9464073FC18C2FB7
:1010300086958695837019F0813061F037C1DD2384
:1010400021F0802F9C2F937002C080E090E00E94DE
:10105000222134C1DD2321F0802F9C2F937002C008
:1010600080E090E00E94382129C1802FDD2319F013
:101070000E94871A02C00E94E21A0E94591B1EC1D8
:101080008C2F837009F045C0D11114C1402F4295B7
:1010900046954770440F440F602F6F70862F90E085
:1010A000A0E0B0E0042E04C0880F991FAA1FBB1F48
:1010B0000A94D2F704FF10C00FE010E020E030E007
:1010C00004C0000F111F221F331F4A95D2F700954D
:1010D00010952095309503C000E010E09801C6956A
:1010E000C695C370BC01CD01602B712B822B932B55
:1010F000C23049F058F4C13019F00E94590ADAC0E0
:101100000E94470AD7C00E946B0AD4C00E94450AB9
:10111000D1C0DD2319F08C2F817001C08695882302
:1011200009F4C8C0402F429546954770440F440FBC
:10113000602F6F70862F90E0A0E0B0E0042E04C016
:10114000880F991FAA1FBB1F0A94D2F704FF10C073
:101150000FE010E020E030E004C0000F111F221F5C
:10116000331F4A95D2F7009510952095309503C00E
:1011700000E010E09801C695C695C370BC01CD0192
:10118000602B712B822B932BC23049F058F4C13065
:1011900019F00E941E0B8EC00E940C0B8BC00E9487
:1011A000300B88C00E947F0A85C0CF70DD2339F0E4
:1011B0008C2F0E94A50A802F0E945D077BC0802F84
:1011C0000E9464078C2F0E94C60A74C0023F01F17E
:1011D00028F4003F41F0013FA1F03FC0033FF9F088
:1011E000043F39F13AC0DD2341F0153008F05EC00C
:1011F0008C2F8F710E94EB0A59C0163008F056C030
:10120000F7CFDD2339F08C2F8F710E94A50A4EC0D5
:10121000DD23C9F38C2F8F710E94C60A47C0DD23DE
:1012200029F08C2F8F710E94900A40C00E948B0A77
:101230003DC0DD2349F0CF718C2F0E94A50A63E0E9
:101240008C2F0E94871032C081E00E94A2101230C1
:1012500068F182E00E94A21029C0DD2331F0112341
:1012600091F2802F0E94260621C0112399F20933A2
:1012700049F49FEFE7EEF3E09150E040F040E1F7F2
:1012800000C00000802F0E94D50610C04C2F4F7068
:10129000602FC7010E944D120E940C0C0FC04C2FF2
:1012A0004F70602FC7010E94501208C088EF8C0D4C
:1012B000843020F40E94F6200E94CD05DD20C9F084
:1012C0000E94D40F80FD15C0F70112820E94CE0F3C
:1012D0000E94A50AC7010E949A090E94CE0FDF91C1
:1012E000CF911F910F91FF90EF90DF90CF900C94D2
:1012F000C60ADF91CF911F910F91FF90EF90DF9081
:10130000CF9008950F931F93CF93DF93EC016881E3
:1013100079818A810E94E90B8C010E94420B0E9414
:10132000330AB801CE010E946B07DF91CF911F9164
:101330000F910895CF93DF93EC01988189812B81E0
:101340003C81232B31F08F3F31F481E09F3F19F432
:1013500003C081E001C080E080FD19C0CE010E9481
:101360009D0481110CC00E94D80F882381F08A81CE
:10137000882369F082E0DF91CF910C94A210CE0116
:101380000E948209CE01DF91CF910C947A04DF9103
:10139000CF91089580E090E00E94222180E090E0CB
:1013A0000E9438210E9420100E9430100E9452108A
:1013B0000E948A1C0C94591B80910001909101019C
:1013C0000E9494210C94CA090E9410100C94DC090C
:1013D000E92FE295EF704E2F50E0FA013297EE3090
:1013E000F105B0F4EA59FF4F0C94BA29803F91F00F
:1013F00018F4883E68F40EC0843F51F40BC0883E58
:1014000048F0813F29F406C093FB882780F90895AE
:1014100080E0089581E00895FC01808191810E941F
:10142000DE0B0E94E8090895CF93DF9300D000D02F
:101430001F92CDB7DEB70F900F900F900F900F90C7
:10144000DF91CF910895CF93DF9300D000D000D0EB
:10145000CDB7DEB726960FB6F894DEBF0FBECDBF70
:10146000DF91CF910895089508950C94340A0C9457
:10147000350A0E94370A6093DD017093DE01809384
:10148000DF019093E0010C94CA090C94390A0F9380
:101490001F930091DD011091DE012091DF01309159
:1014A000E001602B712B822B932B1F910F910C94D9
:1014B000390A0F931F930091DD011091DE012091F5
:1014C000DF013091E00160237123822393231F9178
:1014D0000F910C94390A0F931F930091DD01109125
:1014E000DE012091DF013091E00160277127822722
:1014F00093271F910F910C94390A0C94340A0E947F
:101500007D0A6093D9017093DA018093DB01909397
:10151000DC010C94CA0960E070E0CB010C947F0AF6
:101520000F931F9341E050E060E070E08A019B015F
:1015300004C0000F111F221F331F8A95D2F7C90163
:10154000B8011F910F910C947F0A0F931F9341E0F4
:1015500050E060E070E004C0440F551F661F771F25
:101560008A95D2F78091D9019091DA01A091DB019F
:10157000B091DC018A019B01082B192B2A2B3B2BF4
:10158000C901B8011F910F910C947F0A0F931F930B
:1015900041E050E060E070E004C0440F551F661F5A
:1015A000771F8A95D2F740955095609570958091F8
:1015B000D9019091DA01A091DB01B091DC018A019F
:1015C0009B01082319232A233B23C901B8011F913A
:1015D0000F910C947F0A0F931F9341E050E060E05D
:1015E00070E004C0440F551F661F771F8A95D2F71D
:1015F0008091D9019091DA01A091DB01B091DC01D9
:101600008A019B01082719272A273B27C901B8010E
:101610001F910F910C947F0A0F931F930091D90192
:101620001091DA012091DB013091DC01602B712BEC
:10163000822B932B1F910F910C947F0A0F931F9372
:101640000091D9011091DA012091DB013091DC0188
:1016500060237123822393231F910F910C947F0A9F
:101660000F931F930091D9011091DA012091DB01B2
:101670003091DC0160277127822793271F910F91FA
:101680000C947F0A0895292F220F920F990F890F2A
:10169000E82FE695E695E695877051E001C0550F75
:1016A0008A95EAF785E0E89FF0011124E455FE4FA2
:1016B00020E030E070E04081CB01022E02C0969520
:1016C00087950A94E2F78170819584278523842782
:1016D00081932F5F3F4F2530310569F70895292FFA
:1016E000220F920F990F890F682F66956695669560
:1016F000982F977085E0689FB001112440E050E07A
:1017000080E0FB01E40FF51FE455FE4F208130E03F
:10171000092E02C0369527950A94E2F721703327E7
:10172000042E01C0220F0A94EAF7822B4F5F5F4F0D
:101730004530510531F70895BF92CF92DF92EF9275
:10174000FF920F931F93CF93DF938C01C090D90129
:10175000D090DA01E090DB01F090DC018091DD01B6
:101760009091DE01A091DF01B091E001C82AD92A51
:10177000EA2AFB2ACFE1D0E0D701C6010C2E04C033
:10178000B695A795979587950A94D2F780FD04C0E2
:10179000219790F7B12C07C0BC2EB8018C2F0E9466
:1017A00088130197A9F38B2DDF91CF911F910F9192
:1017B000FF90EF90DF90CF90BF900895CF93DF938D
:1017C000EC010E949C0BBE010E948813DF91CF9117
:1017D00008951F93CF93DF93EB019091AB01992371
:1017E00021F0CB010E94DE0B13C0882349F0CB010E
:1017F0000E949C0B182F682FCE010E94430B04C03F
:10180000CB010E946F0B182FBE01812F0E948813FD
:10181000DF91CF911F910895EF92FF920F931F9345
:10182000CF93DF938C01892B09F46CC0F12CEE244B
:10183000E394E8012196F8018491843740F48430E0
:1018400008F051C0813081F0823019F15BC08537DA
:1018500009F444C0A8F19CE7980F903708F052C0F3
:101860008F770E94D50641C00E5F1F4FFE01849105
:1018700090E2980F983050F48770FE2D01C0FF0F52
:101880008A95EAF78F2F0E94231014C00E94260623
:101890002DC00E5F1F4FFE01849190E2980F98308B
:1018A00060F48770FE2D01C0FF0F8A95EAF78F2F35
:1018B0000E9429100E94521019C00E94D50616C01D
:1018C0000E5F1F4FFE01C491CC2381F08FE99FE092
:1018D0000197F1F700C00000C150F6CF0E5F1F4F17
:1018E000FE01F49003C00E9426068E018F2D8823EE
:1018F00009F49FCFEFE9FFE03197F1F700C0000056
:101900008150F5CFDF91CF911F910F91FF90EF9014
:1019100008951F93CF93DF93C091E10116E080916A
:10192000E201C81799F0D0E01C9FF0011D9FF00D57
:101930001124ED51FE4F4081518162817381848178
:1019400095810E94230A2196C770E9CFDF91CF913C
:101950001F91089540911302509114026091150255
:101960007091160280911702909118020C94230A2C
:101970002091E1019091E20156E02917A9F030E0B1
:10198000529FF001539FF00D1124ED51FE4F7181D4
:10199000761306C07081781303C07281741306C079
:1019A0002F5F3F4F2770E9CF80E0089581E00895D1
:1019B0000F931F93CF93DF938091180282958F70BE
:1019C00009F05DC080911502882309F458C0809108
:1019D000E1011091E2016091130270911402C09133
:1019E0001602D091170291E06F3F09F090E0292F85
:1019F00006E0811709F443C0209721F07F3F21F0D2
:101A000030E003C031E001C0322F90E030FD34C03F
:101A1000089FF001099FF00D1124DF01AD51BE4F69
:101A200011963C911197371327C03C91361324C06F
:101A300012963C91129731111FC013964D915C91F3
:101A400014974C1B5D0B483C5105B0F48091180273
:101A50008F70806180931802E851FE4F80818F70F3
:101A60008061808383E192E00E949A09DF91CF91A7
:101A70001F910F910C94890C01968770BACFDF915A
:101A8000CF911F910F9108958F929F92AF92BF9225
:101A9000CF92DF92EF92FF920F931F93CF93DF933A
:101AA000CDB7DEB761970FB6F894DEBF0FBECDBFDE
:101AB0008C0185E0F801DE011D9601900D928A955A
:101AC000E1F7D8011296EC90909113022091140244
:101AD00040911602509117024115510531F02F3FE8
:101AE00031F481E09F3F19F403C081E001C080E040
:101AF00080FD78C1F801C080D1808380948083E12B
:101B0000A82E82E0B82EF0901502B401641B750B6C
:101B1000FF2009F411C180911802382F307F683CF2
:101B2000710508F0CBC031118AC0D21214C0C9129D
:101B300012C0FE2CE1100FC08F70806180931802DC
:101B40000E94AA0CC5010E949A0980911802D8012E
:101B500015968C9361C18114910439F0BFEFDB12AB
:101B600006C081E0CB1203C003C081E001C080E069
:101B700080FD03C081E08E2502C080E090E080FF00
:101B800010C04E2D6D2D8C2D0E94B80C882349F06D
:101B900083E192E00E949A09E3E1F2E086E0DF014E
:101BA0009DC0892839F0BFEFDB1206C081E0CB125F
:101BB00003C003C081E001C080E080FD03C081E07C
:101BC0008E2502C080E090E0E82FE170BE2E80FFFD
:101BD0002CC04E2D6D2D8C2D0E94B80CF82E81112D
:101BE00024C0CD86DE868D859E850E94DE0B292F42
:101BF00022952F70223018F0243090F405C09F7089
:101C000059F0811109C008C19F7031F0D8011596B3
:101C10009C91907F09F400C1805E883008F4FCC07C
:101C2000C8010E949A09FB2CF7C0FE2CEE2009F493
:101C3000F3C08091180281608093180254C0D212C0
:101C400006C0C91204C0E11002C0F80199C0C80161
:101C50000E940C0A882361F1EE2051F120911802B4
:101C6000822F82958F7090E0029774F0809113021A
:101C70009091140298878F8319869B868A862C8779
:101C8000CE0107960E949A0986E0F801A3E1B2E02E
:101C900001900D928A95E1F70E94D80C0E94AA0C3F
:101CA0000AC0D21611F1C8010E940C0A81112CC081
:101CB000C8010E949A09FF24F394AEC03111F1CFFC
:101CC000782D998A888AA6016E2D89890E94140A26
:101CD00083E192E00E949A0986E0D5011D928A95DF
:101CE000E9F70E94AA0CF12C97C0C912DCCFE110D1
:101CF000DACFF8018583C8010E949A0986E0D501F0
:101D00001D928A95E9F788C0EE2091F22091180281
:101D1000822F82958F7090E002970CF4B5CF80915E
:101D20001302909114029A8389831B829D828C8274
:101D30002E83CE010196A6CF683C710508F044C001
:101D4000FE2CEE2009F4B4CFD21230C0C9122EC03E
:101D50002091180220FD21C0822F82958F70482F7C
:101D600050E041155105C9F0F80125834F30510568
:101D700041F08F5F982F9295907F822F8F70892BE3
:101D80008583C8010E949A0986E0F801A3E1B2E0C8
:101D900001900D928A95E1F73DC086E0F801A3E13C
:101DA000B2E001900D928A95E1F736C0C8010E9419
:101DB0000C0A811169CF809118028160809318020A
:101DC000C8010E949A0928C0782D998A888AA6019C
:101DD0006E2D89890E94140A86E0D5011D928A958C
:101DE000E9F718C0EE2009F463CFC8010E940C0A7D
:101DF000F82E882309F45CCF86E0F801A3E1B2E075
:101E000001900D928A95E1F783E192E00E9420060D
:101E10000E94D80C0E94AA0C8F2D61960FB6F894E0
:101E2000DEBF0FBECDBFDF91CF911F910F91FF900D
:101E3000EF90DF90CF90BF90AF909F908F900895DC
:101E40001F93CF93DF93CDB7DEB72C970FB6F894DF
:101E5000DEBF0FBECDBF4F83588769877A878B87D8
:101E60009C87CE0107960E94440D8823D1F09F8164
:101E700088852A853B85232B31F08F3F31F481E023
:101E80009F3F19F403C081E001C080E080FD47C09E
:101E90004F81588569857A858B859C850E94230AA8
:101EA0003EC086E0FE013796DE01119601900D924C
:101EB0008A95E1F7FF81E8856A857B856115710563
:101EC00031F0EF3F31F481E0FF3F19F403C081E0CE
:101ED00001C080E080FD23C02091E20130E0C90113
:101EE0000196877099274091E10150E0841795078A
:101EF000F1F1F983EA837D836C8396E0929FD001B0
:101F0000939FB00D1124AD51BE4FFE01319601904B
:101F10000D929A95E1F78093E2010E94890C16E0F8
:101F20008091E1019091E201891771F1189FC00140
:101F300011248D519E4F0E94440D882329F1E09178
:101F4000E1011E9FF0011124ED51FE4F40815181AE
:101F500062817381848195810E94230A8091E101CD
:101F600090E00196877099278093E101D9CF0E9474
:101F7000E4091092E2011092E101E3E1F2E086E06F
:101F8000DF011D928A95E9F72C960FB6F894DEBF13
:101F90000FBECDBFDF91CF911F910895809119029F
:101FA0008595859585950895809119028770089586
:101FB00090911902977081E009F480E00895909162
:101FC0008D0292FB222720F9281751F080FB92F90D
:101FD00090938D0280918C0290918D020C94E3106D
:101FE000089580918D0282FB882780F991E08927EE
:101FF0000C94DF0F81E00C94DF0F80E00C94DF0F76
:1020000080912502089590912502892B80932502C5
:102010000895809590912502892380932502089543
:1020200010922502089590912402892B8093240216
:102030000895809590912402892380932402089525
:1020400010922402089590912302892B80932302F9
:102050000895809590912302892380932302089507
:1020600010922302089580911A02089508950C9405
:1020700036100C94371090918D0292FD08C090910B
:102080001A02981721F080931A020C9439100895BF
:1020900080911A02882329F010921A0280E00C9491
:1020A00039100895E0910001F0910101809125021D
:1020B0008083E0910001F0910101908180912402E0
:1020C000892B8083E0910001F09101019081809142
:1020D0002302892B808380911A02882381F0E0916A
:1020E0000001F09101019081892B80838091000192
:1020F000909101010E944E2181110E94481080910F
:102100000001909101010C9409210C9436109091DA
:102110008D0292FD10C098E0899F90011124262B1A
:10212000209319020E94A50A809119028595859530
:1021300085950C9485100C94A50A1092190280E0E4
:102140000C948510209119028095822380931902A6
:10215000982F977041F430E0482F082E000C550B53
:102160002417350721F490918D0292FF07C08595C1
:10217000859585950E94C60A0C949D10089580E06F
:1021800090E00E94F22921E0893E9E4F09F020E074
:10219000822F089582E090E00C94EA2983E090E099
:1021A0000C94EA29CF9384E090E00E94EA29C82F9A
:1021B00082E290E00E94EA292C2F30E0A901582BFE
:1021C000CA01CF910895CF93C92F682F84E090E082
:1021D0000E94F8296C2F82E290E0CF910C94F829AC
:1021E000AB01BC018FE090E00C940A2AAB01BC016A
:1021F00083E190E00C940A2A60E070E0CB010C943B
:10220000F61060E070E0CB010E94F0100C94FC101E
:1022100069EE7EEF80E090E00E94162A60E082E0A6
:1022200090E00E94F82960E083E090E00E94F829A5
:102230001092DD011092DE011092DF011092E00198
:1022400060E084E090E00E94F82960E082E290E0A3
:102250000E94F82960E085E090E00E94F82960E0A3
:1022600086E090E00E94F8296FEF87E090E00E94FE
:10227000F82940E050E0BA0188E090E00E940A2A84
:1022800060E08DE090E00E94F82940E050E0BA0163
:1022900088E190E00E940A2A60E087E190E00E94D5
:1022A000F82940E050E0BA018CE190E00E940A2A4F
:1022B00060E070E080E290E00E94162A40E050E08A
:1022C000BA0188E190E00E940A2A0C9401110C9452
:1022D0000811682F8EE090E00C94F8290E9470227B
:1022E00060933702709338028093390290933A02D8
:1022F00060933302709334028093350290933602D8
:10230000089585B7806885BF85B7806885BF0895C3
:102310000C944D1608950C948A110C948A110C9407
:102320008D110C948A110C9491110C948A110E94B5
:10233000811184E694E10E94DE220E9495110C94A2
:1023400093110E948B110C948A110E945B220E94AF
:102350009B210E9447150E94981C0C948F119F92FC
:10236000AF92BF92CF92DF92EF92FF920F931F93A3
:10237000CF93DF93CDB7DEB72A970FB6F894DEBFC1
:102380000FBECDBF0E94C21581110E946E1187E25F
:10239000A82E82E0B82E00E010E0902E802F0E9440
:1023A0008B14D82EF501C1905F01C826B1F40F5FE0
:1023B0001F4F0C30110589F78FEF89838A831B82A9
:1023C0000E9464228160782F9D838C8349815A8189
:1023D0006B818D810E94D6052FC080913B0281FDCB
:1023E0000E949114E12CFF24F3948C2D8F21F1F0A5
:1023F0000E948811882399F0EE829F82DF2081E07D
:1024000009F480E088870E9464228160782F9A878F
:1024100089874E815F8168858A850E94D605F8018B
:10242000E95DFD4F8081F826F08206C0E394FF0C41
:10243000F6E0EF12DACFBBCF0E94771B0E94F620A6
:10244000909126028917B9F00E94F6208093260207
:102450002A960FB6F894DEBF0FBECDBFDF91CF91A5
:102460001F910F91FF90EF90DF90CF90BF90AF90B2
:102470009F900C94CD052A960FB6F894DEBF0FBE40
:10248000CDBFDF91CF911F910F91FF90EF90DF9023
:10249000CF90BF90AF909F90089580E090E0089516
:1024A000089528E4829FC0011124FC0126E0729F58
:1024B000E00DF11D1124E60FF11DEE0FFF1FE55F8A
:1024C000FE4F859194910895880F991FFC01E55C5A
:1024D000F94F859194910895CF93DF930E948D13C6
:1024E000EC01811520E5920708F03FC0811540E41A
:1024F000940708F0D2C0883E910500F5803E910512
:1025000008F002C1883A910570F4853A910508F007
:10251000A6C08130910509F49FC008F4F2C0049769
:1025200008F0F2C0EEC08F3B910508F4A1C0803CDA
:10253000910508F4E6C0805C9109A5C0811550E2C0
:10254000950760F4C11581E0D80708F0DDC0CD3EE5
:10255000D10508F4D6C0CE019065D7C0811520E31F
:10256000920708F093C09F708EC0811545E59407CF
:1025700008F046C0811554E5950708F0A6C0C115BE
:1025800082E5D80718F5C11521E5D20708F088C003
:10259000CE01F4E096958795FA95E1F7282F237000
:1025A0003C2F337081E090E002C0880F991F3A956C
:1025B000E2F79C68922B2C2F2F702695269540E2EF
:1025C000249F90011124822B932B9FC09E01237086
:1025D00033279C2F96959695C115D34508F065C075
:1025E00041E050E002C0440F551F2A95E2F780E217
:1025F000989F90011124CA01822B932B9C6885C05F
:10260000811559E5950798F4C11588E5D80708F0B4
:1026100061C0C11526E5D20708F073C08C2F0E9457
:1026200021148F7190E0982F882790626EC08115D9
:102630004AE5940708F453C090568115904208F07B
:1026400060C08D2F8F710E9421149E01332730624C
:102650008F71A901582B53C081E090E056C0855A74
:10266000C82FD0E0CF56DE4F888190E090644DC0F7
:10267000885AC82FD0E0CC0FDD1FCD59DE4F88819E
:102680009981946442C00E9464123FC09927D3FF8D
:1026900002C0986C3AC0906C38C09F70906A35C088
:1026A0009C2F8827816F906A30C041E050E002C0C3
:1026B000440F551F2A95E2F780E2989F900111245C
:1026C000CA01822B932B9A6820C0982F8827846F89
:1026D000906A1BC09C2F8827806F906A16C08F70ED
:1026E0000E9421149E0194E0369527959A95E1F772
:1026F0002F7030E0322F22273069A901482BCA0100
:1027000004C080E090E001C0CE01DF91CF91089538
:102710000E9451120E946C1208958238910569F14D
:10272000B0F48133910509F46DC048F48932910504
:1027300009F463C08A32910509F469C008958533AC
:10274000910509F455C089339105B9F00895833E88
:10275000910569F138F4803E9105B1F0823E910512
:1027600009F10895863E9105A9F1873E9105B9F1D9
:10277000843E910509F064C023C020918C0220FDA5
:102780004FC021FD4DC0089580918C0280FD44C052
:1027900080918D0280FF44C080918C0284FD42C0F4
:1027A00083EE4DC080918C0282FF38C0F5CF8091BE
:1027B0008C0282FD33C080918D0280FD31C0ECCF50
:1027C00080918D0281FF32C080918C0284FD2AC0ED
:1027D00087EE35C080918C0283FF26C0F5CF8091B3
:1027E0008C0283FD21C080918D0281FD1FC0ECCF42
:1027F00080918C0285FD1CC01DC080918C0285FDDE
:1028000019C016C080918C0286FD16C017C0809139
:102810008C0286FD13C010C089E311C082EE0FC088
:1028200080EE0DC080E00BC086EE09C084EE07C0CC
:1028300089E205C085E303C08AE201C081E390E03C
:10284000089590918C0292FF0DC0282F2871283096
:1028500019F4877F846006C0282F2471243011F476
:102860008B7F886093FF0DC0282F2871283119F4C1
:10287000877E846106C0282F2471243111F48B7E59
:10288000886120918D0220FF0DC0382F38713830BB
:1028900019F4877F816006C0382F3171313011F40F
:1028A0008E7F886021FF0DC0282F2871283119F4F0
:1028B000877E816106C0282F2171213111F48E7E1F
:1028C000886194FD877E089580E0089508950E94B0
:1028D000BF10811102C00E9467110E94CA1080932C
:1028E0003B020E94D21090938D0280938C020E9432
:1028F00066140E94CE10682F70E080E090E00E9485
:10290000450A6091D9017091DA018091DB019091C3
:10291000DC010C947D0AE82FF0E0E656FD4F808143
:102920000895089580EA8A95F1F7089500C0089502
:102930000C94921408950C949A140C949B140C9477
:102940009A140C949F14F894E82FE295EF70F0E03D
:1029500031A1282F2F7081E090E001C0880F2A95C7
:10296000EAF7982F9095932391A392A1892B82A3A4
:102970007894089508950C94BA140F931F93CF93ED
:10298000DF93CAE9D1E089918F3F11F00E94A3142F
:1029900081E0C03AD807B9F7C4E9D1E00AE911E00B
:1029A00089918F3F11F00E94A3140C171D07C1F7E6
:1029B000DF91CF911F910F910895CF92DF92EF9207
:1029C000FF920F931F93CF93DF938C01C62FD0E01C
:1029D000CE0186569E4F7C01FC0190819F3F09F4F9
:1029E0004DC0D62EF894E92FE295EF70F0E081A16A
:1029F0009F7021E030E001C0220F9A95EAF7822B08
:102A000081A382A12095282322A378940E94961462
:102A1000E4E9F1E020E030E0C12C51E041914F3F8A
:102A2000B1F0A42FA295AF70B0E090968C9190E099
:102A30004F7002C0959587954A95E2F780FD07C0D3
:102A4000852F022E01C0880F0A94EAF701C080E0AA
:102A5000C82A2F5F3F4F2630310501F7F7018081EB
:102A60008F3F11F00E94A31461E0C11001C060E02B
:102A70008D2D0E949814C00FD11FC882DF91CF9175
:102A80001F910F91FF90EF90DF90CF9008950E94DB
:102A90006A168091020180910201811102C096E0C4
:102AA00001C090E09093A70286E0891B8093A60264
:102AB0000E94BD14EEE8F2E0AAE9B2E011921D9284
:102AC00082E0EA39F807D1F786E00E9416160E94E4
:102AD00085040C9474160F931F93CF93DF9300D04B
:102AE00000D000D0CDB7DEB70E944D166091A7028E
:102AF000882379F18E010F5F1F4F86E0F801119254
:102B00008A95E9F7862F90E0B80186569D4F0E947E
:102B10008216E091A6029E01295F3F4FF0E0E65643
:102B2000FD4FD801882361F010E08D9190819817B6
:102B300011F0808311E03196A217B307B1F706C0F8
:102B400011921D92A217B307D9F711E00E948B04CE
:102B50000DC070E066567D4F8091A60290E08656CB
:102B60009D4F0E9412170E94BB1410E0812F2696E1
:102B70000FB6F894DEBF0FBECDBFDF91CF911F918E
:102B80000F910895EF92FF920F931F93CF93DF93CE
:102B9000CDB7DEB72C970FB6F894DEBF0FBECDBF12
:102BA0008E010F5F1F4F8CE0F80111928A95E9F7B3
:102BB000F12C6F2DC8010E94DD14F394F6E0FF1292
:102BC000F8CF4CE050E0B8018EE892E00E94D429A2
:102BD0007C0121E0892B09F420E0E114F10441F0AB
:102BE0008CE0F801AEE8B2E001900D928A95E1F731
:102BF0006091A70270E066567D4F46E08EE892E055
:102C00000E941716EF2819F40E946B1502C081E08C
:102C100090E02C960FB6F894DEBF0FBECDBFDF91CB
:102C2000CF911F910F91FF90EF9008950895FF921B
:102C30000F931F93CF93DF938C01F62ED72FC42FC2
:102C4000222349F081E080933E020E946422909307
:102C50003D0280933C0280913E028823C1F0809126
:102C60003C0290913D020E947C220F9780F0EF2D54
:102C7000FD2FD8014C2F50E0CD01801B910B841704
:102C800095071CF48D918193F7CF10923E02DF914E
:102C9000CF911F910F91FF90089580914102811172
:102CA0000DC00E949929811102C082E001C081E01B
:102CB00080934102823011F40E94942981E0909126
:102CC0004102913009F080E008950E944D1691E094
:102CD000892708950E946516809302010E944D166F
:102CE00081110C94BA1608950E944D16811102C0EC
:102CF0000C94BC16089581E0909142029A3008F03D
:102D000080E008950F931F93CF93DF93EC018B0125
:102D1000809142028A3038F4B801CE010E94101727
:102D200081111DC00AC080913F02909140020E9413
:102D30007C22843F914080F715C0809142028F3FF2
:102D400019F08F5F80934202809142028A3060F0D6
:102D50000E9464229093400280933F0203C010922D
:102D6000420202C080E001C081E0DF91CF911F915B
:102D70000F9108950C942C1F0C942F1FEF92FF922B
:102D80000F931F93CF93DF937901C82F880FDD0B2B
:102D900041155105A9F08AE08C9FF0018D9FF00D3F
:102DA0001124ED5FFE4F838194818D5B9D4F2281C5
:102DB00030E04217530708F49A01A9010E94E12963
:102DC000CE010E943920892B09F50115110501F169
:102DD0008AE08C9FF0018D9FF00D1124ED5FFE4F76
:102DE000458150E00417150708F4A8018AE08C9F7C
:102DF000F0018D9FF00D1124ED5FFE4F668177810C
:102E00006D5B7D4FC7010E94E12902C080E001C0D7
:102E100081E0DF91CF911F910F91FF90EF90089586
:102E20000C942F180C944B180F931F93CF93DF9390
:102E300000D000D0CDB7DEB760915C0270915D022A
:102E400080915E0290915F020E948B226436710530
:102E50008105910528F10E94C121DC01CB01029678
:102E6000A11DB11D89839A83AB83BC8300E010E070
:102E700020E030E044E050E0BE016F5F7F4F82E031
:102E80000E94BE16182F882361F00E947022609362
:102E90005C0270935D0280935E0290935F0201C0BA
:102EA00011E0812F0F900F900F900F90DF91CF9135
:102EB0001F910F910895AF92BF92CF92DF92EF9240
:102EC000FF920F931F93CF93DF937C015B016A0105
:102ED0000E947B16811103C001E010E002C00AE0ED
:102EE00010E0C1E0D0E0F894B501C701F601099502
:102EF0007894811115C021960C171D0794F0CC9F72
:102F00009001CD9F300D300D112480E090E045E31D
:102F10004A95F1F70000019682179307C1F7E3CFB6
:102F200081E0DF91CF911F910F91FF90EF90DF90A3
:102F3000CF90BF90AF900895AF92BF92CF92DF92A3
:102F4000EF92FF920F931F93CF93DF93CDB7DEB72E
:102F500027970FB6F894DEBF0FBECDBF7B01C090A0
:102F6000A601D090A70101E010E09E01295F3F4F2C
:102F700040E050E060E070E080E00E94BE16182F54
:102F8000882309F43EC056018FEFA81AB80A609151
:102F900058027091590280915A0290915B020E94EE
:102FA0008B22643671058105910518F106E010E069
:102FB0009E012F5F3F4F40E050E060E070E081E015
:102FC0000E94BE16182F66E070E0C5010E94991C91
:102FD00091E02F81281390E0192339F10E9470228B
:102FE000609358027093590280935A0290935B0247
:102FF00011C066E070E0C5010E94991C9F81891391
:10300000D5CF86E0F6013196DE01119601900D9242
:103010008A95E1F7112349F086E0FE013196A2E599
:10302000B2E001900D928A95E1F786E0E2E5F2E0E8
:10303000D70101900D928A95E1F7812F27960FB65F
:10304000F894DEBF0FBECDBFDF91CF911F910F91DE
:10305000FF90EF90DF90CF90BF90AF9008950F93C7
:103060001F93CF93DF93EC018B014CE957E10E9452
:103070005B17882351F044E157E1B801CE01DF919D
:10308000CF911F910F910C945B1780E0DF91CF914E
:103090001F910F9108950F931F93CF93DF93F8948F
:1030A000C091A601D091A701CE01019626E0FB01B7
:1030B000DC0101900D922A95E1F766E070E00E9434
:1030C000991C88837894F8946F81788589859A858E
:1030D00000914E0210914F02209150023091510206
:1030E000601771078207930751F060934E02709347
:1030F0004F0280935002909351020E94A421789431
:10310000DF91CF911F910F9108950E94DC210E94C1
:103110003F240E9458240E946A240E94A111FBCFE0
:10312000893279F1E0F4843161F1A0F4873009F05B
:1031300075C01092650294E1909326018093250159
:103140008CE38093240188E08093220188E28093BD
:10315000210164C092EE980F9A30F0F05FC0803584
:1031600009F444C028F48F3409F058C08AE03FC005
:10317000813529F0823509F051C081E038C08FEFE8
:1031800036C080916202882379F110926202109217
:1031900061021092600242C08D51809362028330BE
:1031A00099F038F4813069F08230D9F486E291E008
:1031B0000DC0853099F078F0863099F481E291E085
:1031C00005C085E692E002C085E291E0909361023D
:1031D0008093600223C084E291E0F8CF82E291E024
:1031E000F5CF109262021AC080E0089586EFE09158
:1031F0006002F0916102309789F02081082E000C66
:10320000990B820F911D8F3F910519F014F08FEFEC
:1032100004C097FF02C0108201C0808381E008953E
:103220000F931F9341E050E060E070E08A019B0142
:1032300004C0000F111F221F331F8A95D2F7C90146
:10324000B8010E94450A1F910F910C94E4098B313B
:1032500009F468C058F58B3009F486C078F48630DC
:1032600009F445C020F4853009F44BC07FC0873095
:1032700009F44AC0883009F477C078C0803109F475
:1032800064C068F48E3009F071C080913B0282FB0B
:10329000222720F991E0922790FB82F94CC08631D9
:1032A00009F462C0893109F45FC060C08A32E1F07C
:1032B00060F4873209F455C028F48E3108F456C002
:1032C0008D5150C08932E9F051C0833450F48A33B3
:1032D00008F045C0853309F444C0883309F444C07C
:1032E00045C08334F1F142C00E9467113DC0809116
:1032F0003B02817F8E7F80933B0281E0809363025B
:1033000008950E948E0430C080913B02982F9095C2
:10331000917090FB80F980933B02911125C0897FC9
:10332000877F10C080913B0281FB222720F991E02A
:10333000922790FB81F980933B029923A9F0809119
:103340003B02816080933B020FC080913B0283FB74
:10335000222720F991E0922790FB83F9ECCF895343
:1033600001C080E00E94101981E0089580E0089576
:1033700080E008950C94B819CF93C82F8091630210
:10338000813069F038F08230C1F58C2F0E9490189E
:1033900081E039C00E940010823289F504C00E9489
:1033A0000010823261F48C2F0E94BA19811104C07E
:1033B0008C2F0E9427191FC081E090E01CC08C2F29
:1033C0000E94B819811116C0C43189F058F4CB306D
:1033D00089F0C031B1F482E08093630288E30E94F7
:1033E000901808C0C93219F0C83321F00AC01092F1
:1033F000630207C081E0817006C01092630280E022
:1034000002C080E0F8CFCF91089580916C0280FFD8
:103410000BC06091250185E0689FB001112475956E
:103420006795759567952BC081FF09C0609125014F
:1034300085E0689FB00111247595679520C082FFD3
:1034400007C06091250185E0689FB001112417C075
:1034500090916B029923D1F060912401961788F71F
:103460002091250185E0289F90011124929FA001C1
:10347000939F500D112470E0CA010E94A629603864
:10348000710540F46115710519F406C065E070E03E
:10349000862F08958FE7089581E0089580916C024A
:1034A00080FF08C06091220170E075956795759561
:1034B000679521C081FF06C06091220170E075957B
:1034C000679519C082FF04C06091220170E010C0AE
:1034D00090916A02992399F0609121019617A0F7C3
:1034E00080912201899FC001112470E00E94A629C9
:1034F0006038710540F46115710519F406C061E08A
:1035000070E0862F08958FE7089581E008958D3E3D
:1035100021F40E94051A819504C08E3E29F40E9470
:10352000051A8093700208958F3E21F40E94051AB7
:10353000819504C0803F29F40E94051A80936F0290
:103540000895893F19F40E944E1A05C08A3F31F44C
:103550000E944E1A81958093710208958B3F21F449
:103560000E944E1A819504C08C3F29F40E944E1A85
:103570008093720208959FE0980F983078F421E0CC
:1035800030E0A90102C0440F551F9A95E2F7CA0125
:1035900090916E02892B80936E0208958D3F21F4E5
:1035A00080916C0281600BC08E3F21F480916C028F
:1035B000826005C08F3F29F480916C028460809303
:1035C0006C0208958D3E39F49091700297FF35C0DA
:1035D0001092700259C08E3E29F490917002191613
:1035E000BCF32BC090916F028F3E29F497FF25C04A
:1035F00010926F0249C0803F19F41916CCF31DC018
:1036000090917102893F29F41916BCF4109271024D
:103610003BC08A3F19F497FF10C0F8CF8B3F39F4B5
:103620009091720297FF09C0109272022DC08C3FD8
:1036300021F4909172021916BCF39FE0980F983014
:1036400080F421E030E0A90102C0440F551F9A9593
:10365000E2F7CA01809590916E02892380936E02F1
:1036600013C08D3F21F480916C028E7F0BC08E3F82
:1036700021F480916C028D7F05C08F3F29F48091E9
:103680006C028B7F80936C0280916F02811106C067
:1036900080917002811102C010926B0280917102C0
:1036A000811106C080917202811102C010926A02DB
:1036B00008950E94642220916F02211104C020917C
:1036C0007002222321F09093690280936802209176
:1036D0007102211104C020917202222321F09093E3
:1036E0006702809366028DE692E00C941421EF92BB
:1036F000FF920F931F93CF93DF9300D000D000D0A1
:10370000CDB7DEB786E0EDE6F2E0DE01119601907E
:103710000D928A95E1F7E0906F02F09070020091AF
:1037200071021091720210926F0210927002109248
:10373000710210927202E11003C0FF2009F45DC013
:1037400080916802909169020E947C22AC01909164
:103750006B02992339F02091260130E024173507B8
:1037600058F04BC0209165028AE0289F90011124F7
:103770002417350718F041C09F3F19F09F5F9093C1
:103780006B02EE2061F00E94051A1E1414F09FEFE8
:1037900001C091E0989F902D112490936F02FF201B
:1037A00061F00E94051A1F1414F09FEF01C091E010
:1037B000989F902D11249093700230916F023323C3
:1037C000E1F0209170022223C1F045EB3403C001E7
:1037D0001124992319F090936F0203C081E0809324
:1037E0006F0235EB2303C0011124992319F0909344
:1037F000700203C081E080937002011103C01123A5
:1038000009F45DC080916602909167020E947C225B
:10381000AC0190916A02992339F02091230130E0A4
:103820002417350758F04BC0209164028AE0289F86
:10383000900111242417350718F041C09F3F19F05B
:103840009F5F90936A02002361F00E944E1A101647
:1038500014F09FEF01C091E0989F902D1124909358
:103860007102112361F00E944E1A111614F09FEF9D
:1038700001C091E0989F902D112490937202309195
:1038800071023323E1F0209172022223C1F045EB53
:103890003403C0011124992319F09093710203C0DD
:1038A00081E08093710235EB2303C0011124992339
:1038B00019F09093720203C081E0809372028091AC
:1038C0006F0281110BC080917002811107C080913D
:1038D0007102811103C08091720281110E94591BF3
:1038E000EB82FC820D831E8386E0FE013196ADE6FD
:1038F000B2E001900D928A95E1F726960FB6F89402
:10390000DEBF0FBECDBFDF91CF911F910F91FF9012
:10391000EF900895EDE6F2E086E0DF011D928A95D2
:10392000E9F710926B0210926A0210926C020895ED
:103930000895FC01680F791F8FEF91E3E617F707F1
:1039400071F02191822728E030E087FF03C0880FC3
:10395000892701C0880F21503109B9F7EFCF0895A9
:103960000F931F93CF93DF93C42FD22FFC0182813B
:103970008823C9F0409375020E94642290937402D8
:103980008093730280E28C0F883008F057C0C770B4
:1039900081E001C0880FCA95EAF7DF91CF911F91AE
:1039A0000F910C945D0780917502481330C080918F
:1039B0007302909174020E947C22883C910538F534
:1039C00010E21D0FCD17B9F080E28C0F883040F463
:1039D000C77081E001C0880FCA95EAF70E946407AA
:1039E000183028F581E09D2F977001C0880F9A95B7
:1039F000EAF70E945D07802F0E9454071830F0F408
:103A0000D77081E001C0880FDA95EAF70AC080E23A
:103A10008C0F883098F4C77081E001C0880FCA9578
:103A2000EAF7DF91CF911F910F910C946407802FDB
:103A3000DF91CF911F910F910C945407DF91CF919B
:103A40001F910F9108950F939C01CB01243F4CE5EA
:103A5000340731F188F4293DFCE53F07D9F02A3DD0
:103A60004CE5340779F1283D3C45A9F506E221EE05
:103A700041EE68ED7CE52BC0263FFCE53F07E1F019
:103A8000A8F0273F3C4539F507E225EE46EE67EF03
:103A90007CE51DC007E225EE45EE69ED7CE517C02B
:103AA00006E221EE40EE64EF7CE511C007E225EE70
:103AB00044EE65EF7CE50BC006E221EE42EE66EFD8
:103AC0007CE505C008E221E045EE6AED7CE50E9458
:103AD000B01C80E008C0FC018281882319F010929C
:103AE000750201C081E00F910895CF93DF93EC013F
:103AF000FB018281882309F41FC1C230FCE5DF0786
:103B000008F41BC1C6319CE5D90738F09E012B5F34
:103B10003C452930310508F010C10E94D210909325
:103B20008D0280938C02C031ECE5DE0709F4C3C03E
:103B300008F041C0C8308CE5D80709F49AC0F0F409
:103B4000C430ECE5DE0709F487C068F4C2308CE5C8
:103B5000D80709F477C0C330DC4509F0E3C0809191
:103B60008C02826076C0C630ECE5DE0709F46EC0D8
:103B700008F07BC080918C0288606BC0CC308CE5F3
:103B8000D80709F485C068F4CA30ECE5DE0709F40B
:103B900074C008F079C00E94E40980918C028068AA
:103BA00058C0CE308CE5D80709F476C008F07FC045
:103BB00080918C028BC0CC3FECE5DE0709F44FC04E
:103BC00018F5C3318CE5D80709F47DC078F4C1310C
:103BD000ECE5DE0709F473C0C231DC4509F0A2C090
:103BE0000E94E40980918C028F7733C0C5318CE547
:103BF000D80709F472C008F486C0CB3FDC4509F051
:103C000091C080918D023EC0C115FDE5DF0709F42A
:103C10005FC058F4CE3F9CE5D90709F444C008F4CE
:103C20003FC080918D0282602DC0C230FDE5DF076C
:103C300009F475C008F45DC0C330DD4509F072C0F9
:103C400080E06EC080918C02816003C080918C0204
:103C5000806180938C0266C080918C0211C080913B
:103C60008D02826080938D025DC080918C028062A3
:103C7000F0CF80918C028064ECCF80918C028860C0
:103C80008460E7CF8160EECF80918C028E7FE1CFA0
:103C900080918C028D7FDDCF80918C02877FD9CF80
:103CA00080918D0218C080918D028D7FDBCF809135
:103CB0008C028F7ECECF80918C028F7DCACF809177
:103CC0008C028F7BC6CF80918C02877F8B7FC1CF88
:103CD00080918D028D7F8E7FC5CF80918C0282FB7B
:103CE000222720F991E0922790FB82F990FB83F93B
:103CF000B0CF80918D02982F909591708E7F892BF7
:103D000090FB81F9AFCF0E94E40980918C0287FB80
:103D1000222720F991E0922790FB87F99ACF81E042
:103D20000E94691180918C0290918D020E94E31093
:103D30000E94E40980E001C081E0DF91CF91089505
:103D4000CF93DF9386319C4541F5EB010E94001033
:103D5000982F8A812091000130910101882379F008
:103D60009A7A81E009F480E080937602911102C092
:103D700069E201C065E3C9010E9490210AC08091F7
:103D80007602811102C069E201C065E3C9010E94A7
:103D900092210E94521080E001C081E0DF91CF911A
:103DA00008958EE1489B02C08150E1F7489BFECF09
:103DB0000895589880E28A95F1F7589A0895FC0181
:103DC0002AE02A95F1F728E090E080E031E040E138
:103DD0004A95F1F7880F489B02C08160932700C085
:103DE000000040E14A95F1F7215089F720E12A953A
:103DF000F1F729B100C0000030E13A95F1F72170E8
:103E000092272081920F90830895EF92FF920F9353
:103E10001F93CF93DF931F92CDB7DEB719828C012A
:103E20007C01E60EF11C0E151F0551F00E94D11EFB
:103E3000CE0101960E94DF1EF80181938F01F3CF1E
:103E400081E09981911180E00F90DF91CF911F91D6
:103E50000F91FF90EF900895509A589A08955098B6
:103E6000589AE89AE9E6F0E080818C7F8083089593
:103E7000615091E001C0990F6A95EAF720E031E0C6
:103E8000992361F0492F482319F0589A232701C03C
:103E9000589840E24A95F1F79695F2CF222311F017
:103EA000589A01C0589880E28A95F1F75898089579
:103EB000FF920F931F93CF93DF93EC018C01060FBA
:103EC000111DC017D10741F0F9900E94D91E68E07A
:103ED0008F2D0E94381FF5CFDF91CF911F910F9149
:103EE000FF9008951F920F920FB60F921124EF9238
:103EF000FF920F931F932F933F934F935F936F9373
:103F00007F938F939F93AF93BF93EF93FF93CF9341
:103F1000DF931F92CDB7DEB719820E94D11ECE016A
:103F200001960E94DF1EA82FA695A695A6959A2F0A
:103F3000969595702A2F2570920F292F23709695AC
:103F40009695920F877089137CC08981811179C001
:103F5000A43008F076C080E18A95F1F7589A509A1B
:103F6000B2E0BA95F1F700C05898EA2EF12CEAE0D9
:103F7000AE9FD0011124AD5FBE4F1896ED91FC911C
:103F800019973097B1F06091A6017091A70116962C
:103F90002D913C911797260F371F13968D919C9169
:103FA0001497680F791F15964C91159712968C915E
:103FB00009958AE08E9DF0018F9DF00D1124ED5F33
:103FC000FE4F6581662351F08091A6019091A70173
:103FD00026813781820F931F0E94581F0E94D91E8D
:103FE000F0E1FA95F1F758985098589A80E18A953F
:103FF000F1F78AE08E9D80018F9D100D11240D5FD9
:104000001E4FD80112966C911297662399F08091F9
:10401000A6019091A70113962D913C911497820FC0
:10402000931F0E94051FD801ED91FC91811105C0DD
:1040300082E004C0D801ED91FC9188E080830E9469
:10404000D11E0F90DF91CF91FF91EF91BF91AF9172
:104050009F918F917F916F915F914F913F912F91A0
:104060001F910F91FF90EF900F900FBE0F901F9038
:1040700018950F931F93CF93DF93843091050CF025
:10408000A9C02AE0289FF001299FF00D1124ED5FBF
:10409000FE4F20813181232B09F49CC0EC01F89460
:1040A000509A589885E08A95F1F700008C2F8695F4
:1040B00085709C2F9570890F982F937086958695A3
:1040C0008E0123E0000F111F2A95E1F7890F082BBD
:1040D0000E94D91EA4E0AA95F1F700C068E0802FE5
:1040E0000E94381FB0E1BA95F1F75098589A489954
:1040F00002C000C0FCCF87E090E0489B17C001974A
:1041000099F4509A589A8AE08C9FF0018D9FF00D97
:104110001124ED5FFE4F0190F081E02D81E080835E
:10412000789481E090E058C000C0E7CF8AE08C9F8F
:1041300080018D9F100D11240D5F1E4FF8016581C8
:104140006623B9F08091A6019091A701268137815D
:10415000820F931F0E94051F81110BC0509A589A1D
:10416000D801ED91FC9182E08083789482E090E028
:1041700033C00E94D11EB0E2BA95F1F75898509A18
:10418000E0E1EA95F1F78AE08C9FF0018D9FF00D58
:104190001124ED5FFE4F6281662351F08091A601EC
:1041A0009091A70123813481820F931F0E94581F91
:1041B0000E94D91E8AE08C9FF0018D9FF00D112482
:1041C000ED5FFE4F0190F081E02D1082789480E049
:1041D00090E002C084E090E0DF91CF911F910F91B9
:1041E000089590937D0280937C0208950E944D165D
:1041F000811103C0809177020895E0917C02F091D3
:104200007D02309721F00190F081E02D099480E04B
:104210000895E0917C02F0917D02309721F00280B8
:10422000F381E02D09940895E0917C02F0917D02E4
:10423000309739F022E0DC012C930480F581E02DE9
:104240000994089520917A0230917B02281739074A
:1042500071F090937B0280937A02E0917C02F0915E
:104260007D02309721F00680F781E02D09940895B2
:1042700020917802309179022817390771F09093D4
:10428000790280937802E0917C02F0917D02309770
:1042900021F00084F185E02D09940895FC01329607
:1042A00097E080E0915029F021912223D9F38F5F8C
:1042B000F9CF0895662349F0FC01329608962191C2
:1042C000621729F0E817F907D1F780E0089581E037
:1042D00008959C01FC0132969FEF80E041914617C2
:1042E00089F09F3F19F4411101C0982F8F5F8630EC
:1042F000A9F79F3F39F0F901E90FF11D97FDFA95F4
:104300006283089508959C012A5F3F4FFC0142811A
:10431000461301C01282019682179307B9F70895D8
:104320000C9469210C948321029626E0FC011192E1
:104330002A95E9F708951092A9021092AA02109204
:10434000AB021092AC020895CF92DF92EF92FF92EF
:104350006B017C010E944D1681110EC00E947022DB
:10436000C61AD70AE80AF90AC092A902D092AA028C
:10437000E092AB02F092AC02FF90EF90DF90CF9012
:1043800008950F931F930E944D16882321F01F91CB
:104390000F910C9470220E9470220091A90210913A
:1043A000AA022091AB023091AC02600F711F821FF4
:1043B000931F1F910F910895089508950C94DD2186
:1043C0000C94DD21CF930E94E0210E94C2150E942F
:1043D000DE21C0E08C2F0E948B14811104C0CF5FBE
:1043E000CC30C1F701C081E0CF9108950C94DD215C
:1043F0000C94F6218091B502843049F10E94F82195
:1044000080E00E94CD0510927E0220E488E190E0D9
:104410000FB6F894A895809360000FBE20936000BB
:1044200083B7817F846083BF83B7816083BF7894C3
:10443000889583B78E7F83BF0FB6F894A895809137
:104440006000886180936000109260000FBE089544
:104450000C94DD210E94E4090E94F6200E94CD0503
:104460000C9428221F920F920FB60F9211248F9353
:104470009F93AF93BF9380917E02811113C080916F
:10448000AD029091AE02A091AF02B091B002419600
:10449000A11DB11D8093AD029093AE02A093AF0217
:1044A000B093B002BF91AF919F918F910F900FBECB
:1044B0000F901F90189582E084BD93E095BD9AEF10
:1044C00097BD80936E0008952FB7F8948091AD0248
:1044D0009091AE02A091AF02B091B0022FBF0895AB
:1044E0002FB7F8946091AD027091AE028091AF0247
:1044F0009091B0022FBF08959C014FB7F89480911E
:10450000AD029091AE02A091AF02B091B0024FBF48
:10451000821B930B0895CF92DF92EF92FF922FB7F9
:10452000F894C090AD02D090AE02E090AF02F0904F
:10453000B0022FBFA7019601261B370B480B590B62
:10454000CA01B901FF90EF90DF90CF900895789461
:104550001F920F920FB60F9211248F939F93AF93D8
:10456000BF938091AD029091AE02A091AF02B09145
:10457000B0020196A11DB11D8093AD029093AE02D1
:10458000A093AF02B093B002BF91AF919F918F9172
:104590000F900FBE0F901F90189587E797E79093A5
:1045A0000108809300089AE088E10FB6F894A89576
:1045B000809360000FBE90936000FFCF9093A9019D
:1045C0008093A801089580918A0208959091B50280
:1045D000943031F580937F02709381026093800262
:1045E00082E08093E9008FEF9091E800815095FD83
:1045F00006C095ED9A95F1F700008111F5CF8091F5
:10460000E80085FF0DC040E050E063E070E08FE718
:1046100092E00E94F6248091E8008E778093E80073
:104620000895BC0184E00C94E622BC0183E00C9464
:10463000E62222E02093E9002FEF3091E80021509C
:1046400035FD06C035ED3A95F1F700002111F5CFA3
:104650002091E80025FF0BC040E050E066E070E0EC
:104660000E94F6248091E8008E778093E8000895F8
:10467000CF93DF9321E02093E9002FEF3091E80002
:10468000215035FD06C035ED3A95F1F700002111B6
:10469000F5CF2091E80025FF14C0EC0140E050E088
:1046A00068E070E00E94F6248091E8008E778093A5
:1046B000E80088E0FE01A2E8B2E001900D928A9540
:1046C000E1F7DF91CF9108958091B402811109C083
:1046D0000E9487260E94E4268091E20084608093F5
:1046E000E20008951092B40208950895089508957F
:1046F00042E061EC81E00E94002642E261EC82E04F
:104700000C9400268091B702833009F460C030F425
:10471000813071F0823009F499C008958A3009F42B
:1047200085C08B3009F46BC0893009F0A7C020C068
:104730008091B602813A09F0A1C08091E800877F9C
:104740008093E8008091BA029091BB02892B21F4FA
:1047500068E082E892E003C060E080E090E070E012
:104760000E9441258091E8008B778093E8000895AE
:104770008091B602813209F081C08091BA02909195
:10478000BB02029708F07AC08091E800877F80938F
:10479000E8008091E80082FD05C08091B50281119A
:1047A000F8CF6CC02091F3008091F20090E0922B42
:1047B000029729F48091F1008B7F813021F4809160
:1047C000F10080938A028091E8008B7753C080913A
:1047D000B602813A09F052C08091BA029091BB02B0
:1047E000892B09F04BC08091E800877F8093E80017
:1047F0008091E80080FFFCCF8091310136C080912C
:10480000B6028132D9F58091BA029091BB02892B10
:10481000A9F58091E800877F8093E8000E94352603
:104820008091B802809331010C94E4098091B60222
:10483000813221F58091E800877F8093E8000E9413
:1048400035268091B90280938B0208958091B6023B
:10485000813AA1F48091E800877F8093E8008091FD
:10486000E80080FFFCCF80918B028093F100809163
:10487000E8008E778093E8000C943526089584B77D
:10488000877F84BF0FB6F894A895809160008861F7
:1048900080936000109260000FBE90E080E80FB639
:1048A000F89480936100909361000FBE0C9497116F
:1048B0000E9487260E94E426E2EEF0E08081846078
:1048C000808378940E9479290E94A51187E291E063
:1048D0000C94F1208091B5028530A9F48091B50245
:1048E000853079F40E94FA218091B3028823B1F3D4
:1048F0000E94E221882391F30E94E0240E94E409AF
:10490000EDCF0E942A220C94AF110C948724292FFA
:10491000332723303105C9F060F42130310581F0AF
:104920002230310509F044C08BE390E02BE736E0FC
:1049300043C021323105E1F02232310549F138C05E
:1049400082E190E026EB36E037C09927813091056F
:1049500049F028F0029761F5EBE3F6E005C0E7E7E0
:10496000F6E002C0E9E5F6E0849190E09F0124C002
:104970006115710541F061307105D1F489E090E075
:1049800026EA36E019C089E090E02DE836E014C050
:104990006115710541F06130710551F48BE790E0CC
:1049A00028EC36E009C080E490E023E437E004C05E
:1049B00080E090E020E030E0FA0131832083089528
:1049C00080E189BD82E189BD09B400FEFDCF8091FF
:1049D000D8008F7D8093D8008091E0008260809322
:1049E000E0008091E00081FDFCCF0895CF92DF923E
:1049F000EF92FF920F931F93CF93DF93EC018B0104
:104A00007A010E945426811133C0E114F10439F077
:104A1000F70180819181081B190BC80FD91FC12C88
:104A2000D12C0115110519F18091E80085FD16C002
:104A30008091E8008E778093E800E114F10449F05A
:104A4000F70180819181C80ED91ED182C08285E094
:104A50000FC00E945426882321F30AC089918093B5
:104A6000F10001501109FFEFCF1ADF0ADACF80E021
:104A7000DF91CF911F910F91FF90EF90DF90CF903A
:104A800008952091BC023091BD022617370748F0E7
:104A90006115710539F42091E8002E772093E80024
:104AA00001C0B901FC0120E06115710579F1809127
:104AB000B5028823F1F18530F1F18091E80083FDA2
:104AC0003CC08091E80082FD2EC08091E80080FF0C
:104AD000EBCF2091F3008091F20090E0922B6115D2
:104AE000710551F08830910538F421912093F1003F
:104AF000615071090196F3CF21E0089709F020E099
:104B00008091E8008E778093E800CECF2111CFCF3F
:104B10000AC08091B502882361F0853061F08091F0
:104B2000E80083FD0AC08091E80082FFF2CF80E0B8
:104B3000089582E0089583E0089581E0089520912A
:104B4000BC023091BD022617370748F06115710588
:104B500039F42091E8002E772093E80001C0B901D4
:104B6000FC0120E06115710591F18091B502882367
:104B700009F440C0853009F43FC08091E80083FD0E
:104B80003DC08091E80082FD2FC08091E80080FF49
:104B9000E9CF2091F3008091F20090E0922B611513
:104BA000710559F08830910540F424912093F1006B
:104BB0003196615071090196F2CF21E0089709F012
:104BC00020E08091E8008E778093E800CBCF211120
:104BD000CCCF0AC08091B502882361F0853061F0A6
:104BE0008091E80083FD0AC08091E80082FFF2CF47
:104BF00080E0089582E0089583E0089581E00895BB
:104C0000982F973068F59093E900981739F07091D4
:104C1000EC002091ED005091F00003C0242F762F7E
:104C200050E021FD02C09F5FECCF3091EB003E7F52
:104C30003093EB003091ED003D7F3093ED003091EB
:104C4000EB0031603093EB007093EC002093ED00AB
:104C50005093F0002091EE0027FDE5CF80E008950D
:104C60008F708093E90081E008958091B60287FFFC
:104C700011C08091E80082FD05C08091B5028111CC
:104C8000F8CF11C08091E8008B770BC08091B502FE
:104C9000882349F08091E80080FFF8CF8091E800F8
:104CA0008E778093E80008952091E4003091E5002C
:104CB00095E64091EC00842F817040FF23C08091E5
:104CC000E80080FD1DC08091B502882399F08530F1
:104CD00099F08091EB0085FD11C04091E400509166
:104CE000E5002417350729F3915011F09A01E1CF1F
:104CF00084E0089582E0089583E0089581E00895B6
:104D000080E008954091E80042FFDDCF08950E94C1
:104D1000F5260E94FD26E0EEF0E080818160808330
:104D2000E8EDF0E080818F77808319BCA7EDB0E0DB
:104D30008C918E7F8C9380818F7E80831092B402C1
:104D400008950F931F93CF93DF930E94F5260E943F
:104D5000FD26C8EDD0E088818F77888388818068C0
:104D6000888388818F7D888319BC1092B502109248
:104D7000B1021092B3021092B20200EE10E0F801FC
:104D800080818B7F808388818160888342E060E0BE
:104D900080E00E940026E1EEF0E080818E7F80833B
:104DA000E2EEF0E080818160808380818860808392
:104DB000F80180818E7F8083888180618883DF9184
:104DC000CF911F910F910895E8EDF0E080818F7EE3
:104DD0008083E7EDF0E080818160808384E082BFA2
:104DE00081E08093B4020C94A126E8EDF0E080818C
:104DF0008E7F80831092E20008951092DA00109264
:104E0000E10008951F920F920FB60F9211242F9375
:104E10003F934F935F936F937F938F939F93AF9342
:104E2000BF93EF93FF938091E10082FF0BC08091CD
:104E3000E20082FF07C08091E1008B7F8093E10058
:104E40000E9478298091DA0080FF1FC08091D800ED
:104E500080FF1BC08091DA008E7F8093DA00809102
:104E6000D90080FF0DC080E189BD82E189BD09B410
:104E700000FEFDCF81E08093B5020E94642305C04F
:104E800019BC1092B5020E9472238091E10080FF4C
:104E900019C08091E20080FF15C08091E2008E7FF2
:104EA0008093E2008091E20080618093E200809133
:104EB000D80080628093D80019BC85E08093B50249
:104EC0000E9476238091E10084FF30C08091E2004F
:104ED00084FF2CC080E189BD82E189BD09B400FE58
:104EE000FDCF8091D8008F7D8093D8008091E10024
:104EF0008F7E8093E1008091E2008F7E8093E200BC
:104F00008091E20081608093E2008091B102882369
:104F100011F084E007C08091E30087FD02C081E0CA
:104F200001C083E08093B5020E9477238091E10065
:104F300083FF29C08091E20083FF25C08091E100BA
:104F4000877F8093E10082E08093B5021092B102E6
:104F50008091E1008E7F8093E1008091E2008E7F5E
:104F60008093E2008091E20080618093E20042E061
:104F700060E080E00E9400268091F00088608093CD
:104F8000F0000E947523FF91EF91BF91AF919F9127
:104F90008F917F916F915F914F913F912F910F90E2
:104FA0000FBE0F901F9018951F920F920FB60F9281
:104FB00011242F933F934F935F936F937F938F931E
:104FC0009F93AF93BF93CF93DF93EF93FF93C091E2
:104FD000E900CF708091EC00D82FD17080FDD0E82F
:104FE0001092E9008091F000877F8093F000789420
:104FF0000E9418281092E9008091F0008860809348
:10500000F000CD2BCF70C093E900FF91EF91DF91BD
:10501000CF91BF91AF919F918F917F916F915F9150
:105020004F913F912F910F900FBE0F901F901895A9
:105030001F93CF93DF93CDB7DEB7AA970FB6F8943F
:10504000DEBF0FBECDBFE6EBF2E08091F1008193B1
:1050500022E0EE3BF207C9F70E9482238091E8002C
:1050600083FF2EC18091B6029091B702492F50E084
:105070004A30510508F024C1FA01EC58FF4F0C9456
:10508000BA29803821F0823809F01AC108C080910D
:10509000B2029091B302992389F082600FC080918F
:1050A000BA028F70873008F00BC18093E9008091BD
:1050B000EB0085FB882780F91092E9009091E800C9
:1050C000977F9093E8008093F1001092F100D1C097
:1050D000282F2D7F09F0F4C0882319F0823061F069
:1050E000EFC08091B802813009F0EAC0933009F036
:1050F00080E08093B3022EC08091B80281112AC053
:105100008091BA028F702FEF280F263008F0D8C098
:105110008093E9002091EB0020FF1CC0933021F424
:105120008091EB00806214C09091EB0090619093AD
:10513000EB0021E030E0A90102C0440F551F8A9521
:10514000E2F74093EA001092EA008091EB00886059
:105150008093EB001092E9008091E800877F8093B4
:10516000E8000E943526ACC08111AAC01091B80297
:105170001F778091E3008078812B8093E3008091FA
:10518000E800877F8093E8000E9435268091E80040
:1051900080FFFCCF8091E30080688093E3001111D1
:1051A00002C082E001C083E08093B50289C08058CC
:1051B000823008F085C08091B8029091B9028C3D90
:1051C00053E0950779F583E08A838AE289834FB7B4
:1051D000F894DE01139620E03EE051E2E32FF0E088
:1051E00050935700E49120FF03C0E295EF703F5FBA
:1051F000EF708E2F90E0EA3010F0C79601C0C09695
:105200008D939D932F5F243149F74FBF8091E80024
:10521000877F8093E8006AE270E0CE0101960E94E9
:10522000412516C06091BA027091BB02AE014F5F7A
:105230005F4F0E948524BC01892B09F441C09091E5
:10524000E800977F9093E80089819A810E949F25CA
:105250008091E8008B778093E80032C0803881F538
:105260008091E800877F8093E8008091B10280936D
:10527000F1008091E8008E7772CF811121C080917A
:10528000B8029091B90299270297D4F48091E8006E
:10529000877F8093E8008091B8028093B1020E94DA
:1052A00035268091B102811106C08091E30087FD0F
:1052B00002C081E001C084E08093B5020E9478239F
:1052C0008091E80083FF0AC08091E800877F809387
:1052D000E8008091EB0080628093EB00AA960FB605
:1052E000F894DEBF0FBECDBFDF91CF911F9108951F
:1052F0000895CF938091B5028823A1F0C091E90071
:10530000CF709091EC00892F817090FD80E8C82BC0
:105310001092E9008091E80083FD0E941828CF7068
:10532000C093E900CF9108950E9487261092B5029C
:105330000895E8EDF0E08081806180838AE18A95BC
:10534000F1F700C08091D9008170089597FB072E76
:1053500016F4009407D077FD09D00E94C02907FCFD
:1053600005D03EF4909581959F4F08957095619575
:105370007F4F0895EE0FFF1F0590F491E02D0994E3
:10538000AA1BBB1B51E107C0AA1FBB1FA617B7076B
:1053900010F0A61BB70B881F991F5A95A9F7809587
:1053A0009095BC01CD010895FB01DC0104C08D91F5
:1053B0000190801921F441505040C8F7881B990B87
:1053C0000895FB01DC0102C001900D924150504054
:1053D000D8F70895F999FECF92BD81BDF89A992723
:1053E00080B50895A8E1B0E042E050E00C941E2A98
:1053F000262FF999FECF92BD81BDF89A019700B48E
:10540000021639F01FBA20BD0FB6F894FA9AF99A2D
:105410000FBE08950396272F0E94F9290E94F829AC
:10542000252F0E94F929242F0C94F9290196272F62
:105430000E94F9290C94F829DC01CB01FC01F999AF
:10544000FECF06C0F2BDE1BDF89A319600B40D92D0
:0C54500041505040B8F70895F894FFCF89
:10545C001B0201A8020000000100000000A80200CD
:10546C0000000601000000A8020407000000000074
:10547C00002808643C0714E3223823192315231150
:10548C002301E200E900EA00B500B600B700CD0048
:10549C008301CC008A01920194012102230224028F
:1054AC002502260227022A02B300B4006F00700006
:1054BC00818283E200E900EA00B500B600B700CDB6
:1054CC00008301CC008A0192019401210223022461
:1054DC00022502260227022A02B300B4006F0070D4
:1054EC0000818283946697C63435F6F731333236B1
:0854FC00000000000000430263
:00000001FF
